:1000000012C022C020C01FC01EC01DC01CC01BC00B
:100010001AC019C018C017C016C015C014C013C02C
:1000200012C011C010C011241FBECFE5D4E0DEBF46
:10003000CDBF10E0A0E6B0E001C01D92A236B1072E
:10004000E1F71AD044C0DCCF1F920F920FB60F9287
:100050001124DF93CF93CDB7DEB7CF91DF910F900F
:100060000FBE0F901F901895DF93CF93CDB7DEB7DB
:100070000000CF91DF910895DF93CF9300D0CDB7EB
:10008000DEB7E7E3F0E01082E4E3F0E081E08083B4
:10009000E5E3F0E081E08083E6E3F0E08081882F13
:1000A00090E09A83898389819A81817090709A8384
:1000B000898389819A81009721F4E5E3F0E0108239
:1000C00004C0E5E3F0E081E08083CEDFE5CFF89483
:0200D000FFCF60
:00000001FF
