:1000000012C021C020C01FC01EC01DC01CC01BC00C
:100010001AC019C018C017C016C015C014C013C02C
:1000200012C011C010C011241FBECFE5D4E0DEBF46
:10003000CDBF10E0A0E6B0E001C01D92A436B1072C
:10004000E1F702D08AC1DCCFDF93CF93CDB7DEB723
:10005000E7E3F0E087E08083E1E3F0E08FEF808387
:1000600088EE93E0909363008093620009C08091D2
:100070006200909163000197909363008093620007
:1000800080916200909163001816190684F3E2E3F0
:10009000F0E080E38083E8E3F0E081E08083E8E360
:1000A000F0E0108288EE93E090936300809362000A
:1000B00009C0809162009091630001979093630062
:1000C0008093620080916200909163001816190677
:1000D00084F3E2E3F0E08FE08083E8E3F0E081E0A6
:1000E0008083E8E3F0E0108288EE93E09093630071
:1000F0008093620009C08091620090916300019733
:1001000090936300809362008091620090916300FD
:100110001816190684F3E2E3F0E081E08083E8E357
:10012000F0E081E08083E8E3F0E0108288EE93E085
:10013000909363008093620009C080916200909167
:100140006300019790936300809362008091620046
:10015000909163001816190684F3E2E3F0E080E85A
:100160008083E8E3F0E081E08083E8E3F0E0108260
:1001700088EE93E0909363008093620009C08091C1
:1001800062009091630001979093630080936200F6
:1001900080916200909163001816190684F3E8E3D9
:1001A000F0E085E08083E2E3F0E081E48083E8E34F
:1001B000F0E084E0808388EE93E090936300809386
:1001C000620009C080916200909163000197909352
:1001D0006300809362008091620090916300181622
:1001E000190684F3E8E3F0E085E08083E2E3F0E0E1
:1001F00082E48083E8E3F0E084E0808388EE93E0AB
:10020000909363008093620009C080916200909196
:100210006300019790936300809362008091620075
:10022000909163001816190684F3E8E3F0E085E086
:100230008083E2E3F0E083E48083E8E3F0E084E0BD
:10024000808388EE93E0909363008093620009C0FE
:100250008091620090916300019790936300809376
:10026000620080916200909163001816190684F371
:10027000E2E3F0E080EC8083E8E3F0E081E080837B
:10028000E8E3F0E0108288EE93E0909363008093BF
:10029000620009C080916200909163000197909381
:1002A0006300809362008091620090916300181651
:1002B000190684F3E8E3F0E085E08083E2E3F0E010
:1002C00084E48083E8E3F0E084E0808388EE93E0D8
:1002D000909363008093620009C0809162009091C6
:1002E00063000197909363008093620080916200A5
:1002F000909163001816190684F3E8E3F0E085E0B6
:100300008083E2E3F0E085E48083E8E3F0E084E0EA
:10031000808388EE93E0909363008093620009C02D
:1003200080916200909163000197909363008093A5
:10033000620080916200909163001816190684F3A0
:10034000E8E3F0E085E08083E2E3F0E086E48083A8
:0E035000E8E3F0E084E08083FFCFF894FFCF75
:00000001FF
