:1000000012C021C020C01FC01EC01EC01CC01BC00B
:100010001AC019C018C017C016C015C014C013C02C
:1000200012C011C010C011241FBECFE5D4E0DEBF46
:10003000CDBF10E0A0E6B0E001C01D92AE36B10722
:10004000E1F7B1D0D8C0DCCF1F920F920FB60F925C
:1000500011242F933F934F935F938F939F93EF932D
:10006000FF93DF93CF93CDB7DEB7E6E4F0E0808176
:1000700091819093640080936300E6E4F0E08081D6
:1000800080936000E7E4F0E08081809369008091D4
:100090006C0090916D000097B1F4EEE4F0E081E027
:1000A0008083809163009091640090936B008093B3
:1000B0006A0080916C0090916D00019690936D00A4
:1000C00080936C0061C080916C0090916D008130D4
:1000D000910571F5809163009091640090936200A6
:1000E0008093610080916C0090916D0001969093D7
:1000F0006D0080936C00EEE4F0E081E48083209159
:1001000061003091620080916A0090916B00A901BA
:10011000481B590BCA01909366008093650080913B
:1001200061009091620090936B0080936A002CC0F4
:1001300080916C0090916D008230910529F580913D
:1001400063009091640090936200809361008091BD
:100150006C0090916D00019690936D0080936C00FF
:10016000209161003091620080916A0090916B0053
:10017000A901481B590BCA0190936800809367003E
:10018000EEE4F0E01082F894CF91DF91FF91EF91CF
:100190009F918F915F914F913F912F910F900FBE43
:1001A0000F901F901895DF93CF93CDB7DEB71092C5
:1001B0006D0010926C00E7E3F0E08EEF8083EFE4D7
:1001C000F0E01082E9E5F0E080E28083EEE4F0E028
:1001D00081E48083E8E5F0E080E280837894809198
:1001E0006C0090916D0083309105C8F310926D0002
:0A01F00010926C00FFCFF894FFCFCF
:00000001FF
