:1000000012C021C020C01FC01EC01DC01CC01BC00C
:100010001AC019C018C017C016C015C014C013C02C
:1000200012C011C010C011241FBECFE5D4E0DEBF46
:10003000CDBF10E0A0E6B0E001C01D92A236B1072E
:10004000E1F702D054C0DCCFDF93CF93CDB7DEB75A
:10005000E7E3F0E08CE08083E8E3F0E083E0808396
:10006000E4E3F0E08FE08083E5E3F0E08FEF80836E
:10007000E8E3F0E08BE08083E6E3F0E08081882F26
:1000800090E081709070009729F4E5E3F0E08EEF46
:1000900080830DC0E6E3F0E08081882F90E08270DD
:1000A0009070009721F4E5E3F0E08BEF8083E8E3C4
:1000B000F0E087E08083E6E3F0E08081882F90E045
:1000C00081709070009729F4E5E3F0E08DEF808374
:1000D000CFCFE6E3F0E08081882F90E082709070CF
:1000E000009731F6E5E3F0E087EF8083C1CFF89425
:0200F000FFCF40
:00000001FF
