:1000000012C021C020C01FC01EC01DC01CC01BC00C
:100010001AC019C018C017C016C015C014C013C02C
:1000200012C011C010C011241FBECFE5D4E0DEBF46
:10003000CDBF10E0A0E6B0E001C01D92A236B1072E
:10004000E1F702D036C0DCCFDF93CF93CDB7DEB778
:10005000E7E3F0E082E08083E4E3F0E081E08083A6
:10006000EFE4F0E083E88083EBE4F0E081E080837C
:10007000EAE4F0E08FEF8083EEE4F0E081E080835B
:10008000E6E3F0E08081882F90E082709070009726
:1000900041F0A5E3B0E0E5E3F0E0808181608C937E
:1000A000EFCFA5E3B0E0E5E3F0E080818E7F8C93B5
:0600B000E7CFF894FFCF3A
:00000001FF
