:1000000012C021C020C01FC01EC01DC01CC01BC00C
:100010001AC019C018C017C016C015C014C013C02C
:1000200012C011C010C011241FBECFE5D4E0DEBF46
:10003000CDBF10E0A0E6B0E001C01D92A436B1072C
:10004000E1F79ED0F9C1DCCFDF93CF93CDB7DEB718
:100050002E970FB6F894DEBF0FBECDBF80E090E0C4
:10006000A0E7B1E48B879C87AD87BE876B857C85D5
:100070008D859E8520E030E04AE753E452D1DC01D3
:10008000CB018F839887A987BA876F817885898507
:100090009A8520E030E040E85FE3C2D088232CF46A
:1000A00081E090E09E838D833BC06F817885898558
:1000B0009A8520E03FEF4FE757E42FD118163CF523
:1000C0006B857C858D859E8520E030E040E251E4A3
:1000D00028D1DC01CB01BC01CD01A6D0DC01CB01D4
:1000E0009E838D830FC089E190E09C838B838B81FD
:1000F0009C810197F1F79C838B838D819E81019771
:100100009E838D838D819E81009769F713C06F81D7
:10011000788589859A8588D0DC01CB019E838D8383
:100120008D819E819A83898389819A810197F1F7D4
:100130009A8389832E960FB6F894DEBF0FBECDBF8B
:10014000CF91DF910895DF93CF93CDB7DEB7E8E38A
:10015000F0E081E08083E8E3F0E01082CF91DF916E
:100160000895DF93CF93CDB7DEB7E8E3F0E085E005
:100170008083E8E3F0E084E08083CF91DF9108950D
:10018000DF93CF93CDB7DEB7E7E3F0E087E080837E
:10019000E1E3F0E08FEF808357DFE2E3F0E080E31C
:1001A0008083D1DF51DFE2E3F0E08FE08083CBDFBB
:1001B0004BDFE2E3F0E081E08083C5DF45DFE2E38F
:1001C000F0E080E88083BFDF3FDFE2E3F0E081E43E
:1001D0008083C7DF39DFE2E3F0E082E48083C1DFC0
:1001E00033DFE2E3F0E083E48083BBDF2DDFE2E393
:1001F000F0E080EC8083A7DF27DFE2E3F0E084E437
:100200008083AFDF21DFE2E3F0E085E48083A9DFD4
:100210001BDFE2E3F0E086E48083A3DF15DFFFCF9E
:100220002FD008F481E0089557D088F09F5790F0C0
:10023000B92F9927B751A0F0D1F0660F771F881F0B
:10024000991F1AF0BA95C9F712C0B13081F05ED08B
:10025000B1E008955BC0672F782F8827B85F39F029
:10026000B93FCCF3869577956795B395D9F73EF46A
:1002700090958095709561957F4F8F4F9F4F089512
:10028000990F0008550FAA0BE0E8FEEF16161706A7
:10029000E807F907C0F012161306E407F50798F00F
:1002A000621B730B840B950B39F40A2661F0232B28
:1002B000242B252B21F408950A2609F4A140A695A4
:1002C0008FEF811D811D089557FD9058440F551FD4
:1002D00059F05F3F71F04795880F97FB991F61F0C8
:1002E0009F3F79F087950895121613061406551F3F
:1002F000F2CF4695F1DF08C0161617061806991FAB
:10030000F1CF86957105610508940895E894BB279F
:1003100066277727CB0197F90895B2DF08F48FEFAE
:1003200008950BD078C069D028F06ED018F09523CE
:1003300009F05AC05FC01124EACFC6DFA0F3959F31
:10034000D1F3950F50E0551F629FF001729FBB27BC
:10035000F00DB11D639FAA27F00DB11DAA1F649F68
:100360006627B00DA11D661F829F2227B00DA11D1B
:10037000621F739FB00DA11D621F839FA00D611DA1
:10038000221F749F3327A00D611D231F849F600DC2
:10039000211D822F762F6A2F11249F5750408AF0FB
:1003A000E1F088234AF0EE0FFF1FBB1F661F771F87
:1003B000881F91505040A9F79E3F510570F014C01E
:1003C000A6CF5F3FECF3983EDCF386957795679573
:1003D000B795F795E7959F5FC1F7FE2B880F911DA5
:1003E0009695879597F9089597F99F6780E870E04B
:1003F00060E008959FEF80EC089500240A9416169B
:10040000170618060906089500240A941216130602
:10041000140605060895092E0394000C11F4882390
:1004200052F0BB0F40F4BF2B11F460FF04C06F5FAC
:0C0430007F4F8F4F9F4F0895F894FFCF2F
:00000001FF
